{
  "_format": "hh-sol-artifact-1",
  "contractName": "RevSharable",
  "sourceName": "contracts/RevSharable.sol",
  "abi": [
    {
      "anonymous": false,
      "inputs": [
        {
          "indexed": true,
          "internalType": "address",
          "name": "previousOwner",
          "type": "address"
        },
        {
          "indexed": true,
          "internalType": "address",
          "name": "newOwner",
          "type": "address"
        }
      ],
      "name": "OwnershipTransferred",
      "type": "event"
    },
    {
      "inputs": [],
      "name": "distribute",
      "outputs": [],
      "stateMutability": "nonpayable",
      "type": "function"
    },
    {
      "inputs": [],
      "name": "owner",
      "outputs": [
        {
          "internalType": "address",
          "name": "",
          "type": "address"
        }
      ],
      "stateMutability": "view",
      "type": "function"
    },
    {
      "inputs": [],
      "name": "renounceOwnership",
      "outputs": [],
      "stateMutability": "nonpayable",
      "type": "function"
    },
    {
      "inputs": [
        {
          "internalType": "address",
          "name": "_to",
          "type": "address"
        }
      ],
      "name": "setCharityWallet",
      "outputs": [],
      "stateMutability": "nonpayable",
      "type": "function"
    },
    {
      "inputs": [
        {
          "internalType": "address",
          "name": "newOwner",
          "type": "address"
        }
      ],
      "name": "transferOwnership",
      "outputs": [],
      "stateMutability": "nonpayable",
      "type": "function"
    },
    {
      "inputs": [],
      "name": "wallet0",
      "outputs": [
        {
          "internalType": "address",
          "name": "",
          "type": "address"
        }
      ],
      "stateMutability": "view",
      "type": "function"
    }
  ],
  "bytecode": "0x600180546001600160a01b0319167362760fdae6c7f42f618e71321ff8f582711810691790556101206040527391ac9b0dfe3234473c4492127bb40e072958dbdd6080908152738c8f766def561a4eae7a629921d8b34af06ba85060a05273a56c03c9f73421e19759ddb5973f0d0340834e3b60c05273dfb57b7b2f7cf98536fa9bbc74814d2cb993067860e05273617885c90888a82bd57b037a23144b1ce88ec0ba610100526100b4906002906005610120565b503480156100c157600080fd5b506100cb336100d0565b61019a565b600080546001600160a01b038381166001600160a01b0319831681178455604051919092169283917f8be0079c531659141344cd1fd0a4f28419497f9722a3daafe3b4186f6b6457e09190a35050565b828054828255906000526020600020908101928215610175579160200282015b8281111561017557825182546001600160a01b0319166001600160a01b03909116178255602090920191600190910190610140565b50610181929150610185565b5090565b5b808211156101815760008155600101610186565b6105c6806101a96000396000f3fe608060405234801561001057600080fd5b50600436106100625760003560e01c806330563bd714610067578063715018a61461007c5780638da5cb5b14610084578063b3233ee2146100a8578063e4fc6b6d146100bb578063f2fde38b146100c3575b600080fd5b61007a610075366004610492565b6100d6565b005b61007a610130565b61008c61016b565b6040516001600160a01b03909116815260200160405180910390f35b60015461008c906001600160a01b031681565b61007a61017a565b61007a6100d1366004610492565b610325565b336100df61016b565b6001600160a01b03161461010e5760405162461bcd60e51b815260040161010590610514565b60405180910390fd5b600180546001600160a01b0319166001600160a01b0392909216919091179055565b3361013961016b565b6001600160a01b03161461015f5760405162461bcd60e51b815260040161010590610514565b61016960006103c5565b565b6000546001600160a01b031690565b3361018361016b565b6001600160a01b0316146101a95760405162461bcd60e51b815260040161010590610514565b47806101e95760405162461bcd60e51b815260206004820152600f60248201526e042616c616e6365206973203c3d203608c1b6044820152606401610105565b60006101f6826002610415565b905061022360405180604001604052806009815260200168746f4368617269747960b81b81525082610428565b6001546040516001600160a01b039091169082156108fc029083906000818181858888f1935050505015801561025d573d6000803e3d6000fd5b50600061026b826005610415565b905061029f6040518060400160405280601081526020016f1cda185c99481c195c881dd85b1b195d60821b81525082610428565b60005b600581101561031f57600281815481106102cc57634e487b7160e01b600052603260045260246000fd5b60009182526020822001546040516001600160a01b039091169184156108fc02918591818181858888f1935050505015801561030c573d6000803e3d6000fd5b508061031781610569565b9150506102a2565b50505050565b3361032e61016b565b6001600160a01b0316146103545760405162461bcd60e51b815260040161010590610514565b6001600160a01b0381166103b95760405162461bcd60e51b815260206004820152602660248201527f4f776e61626c653a206e6577206f776e657220697320746865207a65726f206160448201526564647265737360d01b6064820152608401610105565b6103c2816103c5565b50565b600080546001600160a01b038381166001600160a01b0319831681178455604051919092169283917f8be0079c531659141344cd1fd0a4f28419497f9722a3daafe3b4186f6b6457e09190a35050565b60006104218284610549565b9392505050565b61046d828260405160240161043e9291906104b9565b60408051601f198184030181529190526020810180516001600160e01b03166309710a9d60e41b179052610471565b5050565b80516a636f6e736f6c652e6c6f67602083016000808483855afa5050505050565b6000602082840312156104a3578081fd5b81356001600160a01b0381168114610421578182fd5b6040815260008351806040840152815b818110156104e657602081870181015160608684010152016104c9565b818111156104f75782606083860101525b50602083019390935250601f91909101601f191601606001919050565b6020808252818101527f4f776e61626c653a2063616c6c6572206973206e6f7420746865206f776e6572604082015260600190565b60008261056457634e487b7160e01b81526012600452602481fd5b500490565b600060001982141561058957634e487b7160e01b81526011600452602481fd5b506001019056fea2646970667358221220b5564d9ef8c10dc10153b660bd405ad1539052d82f6803f99fa2817aff94beae64736f6c63430008040033",
  "linkReferences": {},
  "deployedLinkReferences": {}
}