{
  "_format": "hh-sol-artifact-1",
  "contractName": "WeedLoot",
  "sourceName": "contracts/WeedLoot.sol",
  "abi": [
    {
      "inputs": [],
      "stateMutability": "nonpayable",
      "type": "constructor"
    },
    {
      "anonymous": false,
      "inputs": [
        {
          "indexed": true,
          "internalType": "address",
          "name": "owner",
          "type": "address"
        },
        {
          "indexed": true,
          "internalType": "address",
          "name": "approved",
          "type": "address"
        },
        {
          "indexed": true,
          "internalType": "uint256",
          "name": "tokenId",
          "type": "uint256"
        }
      ],
      "name": "Approval",
      "type": "event"
    },
    {
      "anonymous": false,
      "inputs": [
        {
          "indexed": true,
          "internalType": "address",
          "name": "owner",
          "type": "address"
        },
        {
          "indexed": true,
          "internalType": "address",
          "name": "operator",
          "type": "address"
        },
        {
          "indexed": false,
          "internalType": "bool",
          "name": "approved",
          "type": "bool"
        }
      ],
      "name": "ApprovalForAll",
      "type": "event"
    },
    {
      "anonymous": false,
      "inputs": [
        {
          "indexed": true,
          "internalType": "address",
          "name": "previousOwner",
          "type": "address"
        },
        {
          "indexed": true,
          "internalType": "address",
          "name": "newOwner",
          "type": "address"
        }
      ],
      "name": "OwnershipTransferred",
      "type": "event"
    },
    {
      "anonymous": false,
      "inputs": [
        {
          "indexed": true,
          "internalType": "address",
          "name": "from",
          "type": "address"
        },
        {
          "indexed": true,
          "internalType": "address",
          "name": "to",
          "type": "address"
        },
        {
          "indexed": true,
          "internalType": "uint256",
          "name": "tokenId",
          "type": "uint256"
        }
      ],
      "name": "Transfer",
      "type": "event"
    },
    {
      "inputs": [],
      "name": "_currentTokenId",
      "outputs": [
        {
          "internalType": "uint256",
          "name": "",
          "type": "uint256"
        }
      ],
      "stateMutability": "view",
      "type": "function"
    },
    {
      "inputs": [
        {
          "internalType": "address",
          "name": "to",
          "type": "address"
        },
        {
          "internalType": "uint256",
          "name": "tokenId",
          "type": "uint256"
        }
      ],
      "name": "approve",
      "outputs": [],
      "stateMutability": "nonpayable",
      "type": "function"
    },
    {
      "inputs": [
        {
          "internalType": "address",
          "name": "owner",
          "type": "address"
        }
      ],
      "name": "balanceOf",
      "outputs": [
        {
          "internalType": "uint256",
          "name": "",
          "type": "uint256"
        }
      ],
      "stateMutability": "view",
      "type": "function"
    },
    {
      "inputs": [],
      "name": "claim",
      "outputs": [],
      "stateMutability": "payable",
      "type": "function"
    },
    {
      "inputs": [],
      "name": "costToMint",
      "outputs": [
        {
          "internalType": "uint256",
          "name": "",
          "type": "uint256"
        }
      ],
      "stateMutability": "view",
      "type": "function"
    },
    {
      "inputs": [],
      "name": "distribute",
      "outputs": [],
      "stateMutability": "nonpayable",
      "type": "function"
    },
    {
      "inputs": [
        {
          "internalType": "uint256",
          "name": "tokenId",
          "type": "uint256"
        },
        {
          "internalType": "string",
          "name": "salt",
          "type": "string"
        }
      ],
      "name": "getAccessory",
      "outputs": [
        {
          "internalType": "string",
          "name": "",
          "type": "string"
        }
      ],
      "stateMutability": "view",
      "type": "function"
    },
    {
      "inputs": [
        {
          "internalType": "uint256",
          "name": "tokenId",
          "type": "uint256"
        }
      ],
      "name": "getApproved",
      "outputs": [
        {
          "internalType": "address",
          "name": "",
          "type": "address"
        }
      ],
      "stateMutability": "view",
      "type": "function"
    },
    {
      "inputs": [
        {
          "internalType": "uint256",
          "name": "tokenId",
          "type": "uint256"
        }
      ],
      "name": "getDevice",
      "outputs": [
        {
          "internalType": "string",
          "name": "",
          "type": "string"
        }
      ],
      "stateMutability": "view",
      "type": "function"
    },
    {
      "inputs": [
        {
          "internalType": "uint256",
          "name": "tokenId",
          "type": "uint256"
        }
      ],
      "name": "getDrink",
      "outputs": [
        {
          "internalType": "string",
          "name": "",
          "type": "string"
        }
      ],
      "stateMutability": "view",
      "type": "function"
    },
    {
      "inputs": [
        {
          "internalType": "uint256",
          "name": "tokenId",
          "type": "uint256"
        },
        {
          "internalType": "string",
          "name": "salt",
          "type": "string"
        }
      ],
      "name": "getSnack",
      "outputs": [
        {
          "internalType": "string",
          "name": "",
          "type": "string"
        }
      ],
      "stateMutability": "view",
      "type": "function"
    },
    {
      "inputs": [
        {
          "internalType": "uint256",
          "name": "tokenId",
          "type": "uint256"
        },
        {
          "internalType": "string",
          "name": "salt",
          "type": "string"
        }
      ],
      "name": "getWeed",
      "outputs": [
        {
          "internalType": "string",
          "name": "",
          "type": "string"
        }
      ],
      "stateMutability": "view",
      "type": "function"
    },
    {
      "inputs": [
        {
          "internalType": "address",
          "name": "owner",
          "type": "address"
        },
        {
          "internalType": "address",
          "name": "operator",
          "type": "address"
        }
      ],
      "name": "isApprovedForAll",
      "outputs": [
        {
          "internalType": "bool",
          "name": "",
          "type": "bool"
        }
      ],
      "stateMutability": "view",
      "type": "function"
    },
    {
      "inputs": [],
      "name": "name",
      "outputs": [
        {
          "internalType": "string",
          "name": "",
          "type": "string"
        }
      ],
      "stateMutability": "view",
      "type": "function"
    },
    {
      "inputs": [],
      "name": "owner",
      "outputs": [
        {
          "internalType": "address",
          "name": "",
          "type": "address"
        }
      ],
      "stateMutability": "view",
      "type": "function"
    },
    {
      "inputs": [],
      "name": "ownerClaim",
      "outputs": [],
      "stateMutability": "nonpayable",
      "type": "function"
    },
    {
      "inputs": [
        {
          "internalType": "uint256",
          "name": "tokenId",
          "type": "uint256"
        }
      ],
      "name": "ownerOf",
      "outputs": [
        {
          "internalType": "address",
          "name": "",
          "type": "address"
        }
      ],
      "stateMutability": "view",
      "type": "function"
    },
    {
      "inputs": [],
      "name": "renounceOwnership",
      "outputs": [],
      "stateMutability": "nonpayable",
      "type": "function"
    },
    {
      "inputs": [
        {
          "internalType": "address",
          "name": "from",
          "type": "address"
        },
        {
          "internalType": "address",
          "name": "to",
          "type": "address"
        },
        {
          "internalType": "uint256",
          "name": "tokenId",
          "type": "uint256"
        }
      ],
      "name": "safeTransferFrom",
      "outputs": [],
      "stateMutability": "nonpayable",
      "type": "function"
    },
    {
      "inputs": [
        {
          "internalType": "address",
          "name": "from",
          "type": "address"
        },
        {
          "internalType": "address",
          "name": "to",
          "type": "address"
        },
        {
          "internalType": "uint256",
          "name": "tokenId",
          "type": "uint256"
        },
        {
          "internalType": "bytes",
          "name": "_data",
          "type": "bytes"
        }
      ],
      "name": "safeTransferFrom",
      "outputs": [],
      "stateMutability": "nonpayable",
      "type": "function"
    },
    {
      "inputs": [
        {
          "internalType": "address",
          "name": "operator",
          "type": "address"
        },
        {
          "internalType": "bool",
          "name": "approved",
          "type": "bool"
        }
      ],
      "name": "setApprovalForAll",
      "outputs": [],
      "stateMutability": "nonpayable",
      "type": "function"
    },
    {
      "inputs": [
        {
          "internalType": "address",
          "name": "_to",
          "type": "address"
        }
      ],
      "name": "setCharityWallet",
      "outputs": [],
      "stateMutability": "nonpayable",
      "type": "function"
    },
    {
      "inputs": [
        {
          "internalType": "uint256",
          "name": "_costToMint",
          "type": "uint256"
        }
      ],
      "name": "setCostToMint",
      "outputs": [],
      "stateMutability": "nonpayable",
      "type": "function"
    },
    {
      "inputs": [
        {
          "internalType": "bytes4",
          "name": "interfaceId",
          "type": "bytes4"
        }
      ],
      "name": "supportsInterface",
      "outputs": [
        {
          "internalType": "bool",
          "name": "",
          "type": "bool"
        }
      ],
      "stateMutability": "view",
      "type": "function"
    },
    {
      "inputs": [],
      "name": "symbol",
      "outputs": [
        {
          "internalType": "string",
          "name": "",
          "type": "string"
        }
      ],
      "stateMutability": "view",
      "type": "function"
    },
    {
      "inputs": [
        {
          "internalType": "uint256",
          "name": "index",
          "type": "uint256"
        }
      ],
      "name": "tokenByIndex",
      "outputs": [
        {
          "internalType": "uint256",
          "name": "",
          "type": "uint256"
        }
      ],
      "stateMutability": "view",
      "type": "function"
    },
    {
      "inputs": [
        {
          "internalType": "address",
          "name": "owner",
          "type": "address"
        },
        {
          "internalType": "uint256",
          "name": "index",
          "type": "uint256"
        }
      ],
      "name": "tokenOfOwnerByIndex",
      "outputs": [
        {
          "internalType": "uint256",
          "name": "",
          "type": "uint256"
        }
      ],
      "stateMutability": "view",
      "type": "function"
    },
    {
      "inputs": [
        {
          "internalType": "uint256",
          "name": "tokenId",
          "type": "uint256"
        }
      ],
      "name": "tokenURI",
      "outputs": [
        {
          "internalType": "string",
          "name": "",
          "type": "string"
        }
      ],
      "stateMutability": "view",
      "type": "function"
    },
    {
      "inputs": [],
      "name": "totalSupply",
      "outputs": [
        {
          "internalType": "uint256",
          "name": "",
          "type": "uint256"
        }
      ],
      "stateMutability": "view",
      "type": "function"
    },
    {
      "inputs": [
        {
          "internalType": "address",
          "name": "from",
          "type": "address"
        },
        {
          "internalType": "address",
          "name": "to",
          "type": "address"
        },
        {
          "internalType": "uint256",
          "name": "tokenId",
          "type": "uint256"
        }
      ],
      "name": "transferFrom",
      "outputs": [],
      "stateMutability": "nonpayable",
      "type": "function"
    },
    {
      "inputs": [
        {
          "internalType": "address",
          "name": "newOwner",
          "type": "address"
        }
      ],
      "name": "transferOwnership",
      "outputs": [],
      "stateMutability": "nonpayable",
      "type": "function"
    },
    {
      "inputs": [],
      "name": "wallet0",
      "outputs": [
        {
          "internalType": "address",
          "name": "",
          "type": "address"
        }
      ],
      "stateMutability": "view",
      "type": "function"
    }
  ],
  "bytecode": "0x600c80546001600160a01b0319167362760fdae6c7f42f618e71321ff8f582711810691790556101206040527391ac9b0dfe3234473c4492127bb40e072958dbdd6080908152738c8f766def561a4eae7a629921d8b34af06ba85060a05273a56c03c9f73421e19759ddb5973f0d0340834e3b60c05273dfb57b7b2f7cf98536fa9bbc74814d2cb993067860e05273617885c90888a82bd57b037a23144b1ce88ec0ba61010052620000b690600d90600562002124565b506001600e908155662386f26fc10000600f556040805161024081018252600b61020082019081526a090c2d8cc408ad2ced0e8d60ab1b610220830152815281518083018352600a808252694e69636b656c2042616760b01b6020838101919091528084019290925283518085018552600881526744696d652042616760c01b81840152838501528351808501855260078082526628bab0b93a32b960c91b828501526060850191909152845180860186526004808252634d69647360e01b82860152608086019190915285518087018752600c81526b52656773426561737465727360a01b8186015260a086015285518087018752818152634243277360e01b8186015260c086015285518087018752928352692137b733902bb0ba32b960b11b8385015260e0850192909252845180860186529081526629b430ba3a32b960c91b818401526101008401528351808501855290815263090c2e6d60e31b8183015261012083015282518084018452600981526854726963686f6d657360b81b818301526101408301528251808401845260038082526213da5b60ea1b8284015261016084019190915283518085018552908152620aec2f60eb1b8183015261018083015282518084018452600681526529b83634b33360d11b818301526101a08301528251808401845260058152644768616e6960d81b818301526101c083015282518084019093529282526d426167206f66204f726567616e6f60901b928201929092526101e0820152620002f290601090816200218e565b50604051806101e0016040528060405180604001604052806004815260200163096eae6d60e31b81525081526020016040518060400160405280600b81526020016a0a0eae4e0d8ca40d6eae6d60ab1b81525081526020016040518060400160405280600b81526020016a5768697465207769646f7760a81b815250815260200160405180604001604052806005815260200164536565647360d81b81525081526020016040518060400160405280601981526020017f4772616e64646164647920507572704d61756920576f7769650000000000000081525081526020016040518060400160405280600a815260200169426c756520447265616d60b01b81525081526020016040518060400160405280600f81526020016e4e6f72746865726e204c696768747360881b81525081526020016040518060400160405280601181526020017050696e656170706c65204578707265737360781b8152508152602001604051806040016040528060058152602001645374656d7360d81b81525081526020016040518060400160405280600c81526020016b23b932b2b710223930b3b7b760a11b81525081526020016040518060400160405280600381526020016210d09160ea1b81525081526020016040518060400160405280601381526020017f426167206f662041637475616c2047726173730000000000000000000000000081525081526020016040518060400160405280600c81526020016b29b2b1b932ba102932b9b4b760a11b81525081526020016040518060400160405280600a8152602001694d696473205368616b6560b01b81525081526020016040518060400160405280600a81526020016952656773205368616b6560b01b815250815250601190600f62000588929190620021ee565b506040805161050081018252600c6104c082018181526b29ba32b0b6902937b63632b960a11b6104e08401528252825180840184526004808252635661706560e01b60208381019190915280850192909252845180860186528181526323b930bb60e11b81840152848601528451808601865281815263426f6e6760e01b81840152606085015284518086018652600780825266213ab1313632b960c91b8285015260808601919091528551808701875260098082526815d85d195c99985b1b60ba1b8286015260a0870191909152865180880188528181526812db9a599948121a5d60ba1b8186015260c0870152865180880188528581526b436f726e636f62205069706560a01b8186015260e087015286518088018852600b8082526a111c9e595c8814da19595d60aa1b82870152610100880191909152875180890189528281526815da1a5d194813dddb60ba1b81870152610120880152875180890189526008815267109858dadddbdbd960c21b8187015261014088015287518089018952600580825264129bda5b9d60da1b828801526101608901919091528851808a018a52858152634f6e657960e01b818801526101808901528851808a018a52600d8082526c2634ba3a3632902434ba3a32b960991b828901526101a08a01919091528951808b018b52600680825265111d59dbdd5d60d21b828a01526101c08b01919091528a51808c018c528981526b486f6c6c6f77204170706c6560a01b818a01526101e08b01528a51808c018c528981526b47616e646f6c66205069706560a01b818a01526102008b01528a51808c018c528481526a223aba31b436b0b9ba32b960a91b818a01526102208b01528a51808c018c528581526823b932b2b73632b0b360b91b818a01526102408b01528a51808c018c52601081526f486967686c696768746572205069706560801b818a01526102608b01528a51808c018c528681526629b437ba33bab760c91b818a018190526102808c01919091528b51808d018d52878152664368696c6c756d60c81b818b01526102a08c01528b51808d018d5260038152622230b160e91b818b01526102c08c01528b51808d018d52938452642932b9b4b760d91b848a01526102e08b01939093528a51808c018c529687526310d85c9d60e21b878901526103008a01969096528951808b018b5285815266090dee84084def60cb1b818901526103208a01528951808b018b5294855284870191909152610340880193909352875180890189528681526b566f6c63616e6f205661706560a01b81870152610360880152875180890189529283526c14ddda5cda195c8814ddd9595d609a1b8386015261038087019290925286518088018852600a8152692832b931b7b630ba37b960b11b818601526103a0870152865180880188528581526b416372796c696320426f6e6760a01b818601526103c0870152865180880188528581526b313020466f6f7420426f6e6760a01b818601526103e0870152865180880188529485526b4761736d61736b20426f6e6760a01b85850152610400860194909452855180870187528181526a57697a617264205069706560a81b818501526104208601528551808701875293845268293ab9ba3c9021b0b760b91b84840152610440850193909352845180860186529081526514dbd8dad95d60d21b8183015261046084015283518085018552601481527f313020466f6f7420416372796c696320426f6e670000000000000000000000008183015261048084015283518085019094529083526a10dc9bdcdcc8129bda5b9d60aa1b908301526104a081019190915262000acb90601290602662002240565b50604080516102c081018252600a610280820181815269334420446f7269746f7360b01b6102a0840152825282518084018452600b8082526a10da19595d1bc8111d5cdd60aa1b60208381019190915280850192909252845180860186528181526a47756d6d7920576f726d7360a81b818401528486015284518086018652600880825267536e69636b65727360c01b8285015260608601919091528551808701875260138082527f5374616c6520436c756220437261636b6572730000000000000000000000000082860152608087019190915286518088018852600d81526c43726166742053696e676c657360981b8186015260a08701528651808801885282815267436865657a69747360c01b8186015260c08701528651808801885285815269536f676779205461636f60b01b8186015260e0870152865180880188528381526a43686f63636f205461636f60a81b8186015261010087015286518088018852858152695374616c65205461636f60b01b818601526101208701528651808801885285815269517565736164696c6c6160b01b818601526101408701528651808801885260078082526612da5d0b52d85d60ca1b828701526101608801919091528751808901895260098082526849636520437265616d60b81b828801526101808901919091528851808a018a52938452675072696e676c657360c01b848701526101a088019390935287518089018952868152690436865657365204469760b41b818701526101c0880152875180890189529081526646756e79756e7360c81b818601526101e0870152865180880188529182526821bab8102930b6b2b760b91b82850152610200860191909152855180870187529182526a50697a7a6120526f6c6c7360a81b8284015261022085019190915284518086018652928352694c756e636861626c657360b01b838301526102408401929092528351808501909452600e84526d436f736d69632042726f776e696560901b9084015261026082019290925262000dc29190601462002292565b506040518061026001604052806040518060400160405280600e81526020016d14dbdd5c8814dd185c989d5c9cdd60921b815250815260200160405180604001604052806006815260200165455a204d616360d01b81525081526020016040518060400160405280600581526020016450697a7a6160d81b8152508152602001604051806040016040528060078152602001664275727269746f60c81b81525081526020016040518060400160405280600981526020016844756e6b61726f6f7360b81b8152508152602001604051806040016040528060098152602001684c756e636861626c6560b81b81525081526020016040518060400160405280601381526020017f466c616d696e6720486f742043686565746f730000000000000000000000000081525081526020016040518060400160405280600b81526020016a536f75722053747261777360a81b81525081526020016040518060400160405280601481526020017f446f75626c652053747566666564204f72656f730000000000000000000000008152508152602001604051806040016040528060058152602001644f72656f7360d81b81525081526020016040518060400160405280600a815260200169121bdd08141bd8dad95d60b21b815250815260200160405180604001604052806008815260200167536c696d204a696d60c01b81525081526020016040518060400160405280601081526020016f536f75722047756d6d7920576f726d7360801b81525081526020016040518060400160405280600681526020016554617175697360d01b81525081526020016040518060400160405280601581526020017f5768697465204368656464617220506f70636f726e00000000000000000000008152508152602001604051806040016040528060098152602001682437b732bc90213ab760b91b8152508152602001604051806040016040528060068152602001654e6163686f7360d01b815250815260200160405180604001604052806009815260200168506f7020526f636b7360b81b81525081526020016040518060400160405280600a8152602001694e6572647320526f706560b01b8152508152506014906013620010fc929190620022e4565b506040805161048081018252600c61044082018181526b56616e696c6c6120436f6b6560a01b610460840152825282518084018452600a81526910985a9848109b185cdd60b21b60208281019190915280840191909152835180850185529182526b213ab1313632902bb0ba32b960a11b828201528284019190915282518084018452600e8082526d43686f636f6c617465204d696c6b60901b828401526060840191909152835180850185526009808252684d696c6b7368616b6560b81b82850152608085019190915284518086018652600580825264466179676f60d81b8286015260a086019190915285518087018752818152642bb0ba32b960d91b8186015260c086015285518087018752600780825266536c757270656560c81b8287015260e087019190915286518088018852600b8082526a4172697a6f6e612054656160a81b82880152610100880191909152875180890189526004808252634d696c6b60e01b828901526101208901919091528851808a018a529586526d4c6970746f6e204963652054656160901b868801526101408801959095528751808901895285815263436f6b6560e01b8188015261016088015287518089018952600681526553707269746560d01b818801526101808801528751808901895260088152674c656d6f6e61646560c01b818801526101a088015287518089018952600d8082526c50696e6b204c656d6f6e61646560981b828901526101c08901919091528851808a018a52601781527f4761746f7261646520476c616369657220467265657a65000000000000000000818901526101e08901528851808a018a5283815266149959189d5b1b60ca1b818901526102008901528851808a018a52601981527f536c75736820507570707920426c756520526173706572727900000000000000818901526102208901528851808a018a52601481527f4761746f726164652046727569742050756e6368000000000000000000000000818901526102408901528851808a018a52601381527f4761746f72616465204c656d6f6e2d4c696d6500000000000000000000000000818901526102608901528851808a018a52600f81526e4761746f72616465204f72616e676560881b818901526102808901528851808a018a52601681527f4761746f72616465204d616e676f2045787472656d6f00000000000000000000818901526102a08901528851808a018a526012815271536c7573682050757070792043686572727960701b818901526102c08901528851808a018a526011815270536c75736820507570707920477261706560781b818901526102e08901528851808a018a52858152682239102832b83832b960b91b818901526103008901528851808a018a528381526626b9102834b13160c91b818901526103208901528851808a018a52948552682937b7ba102132b2b960b91b8588015261034088019490945287518089018952948552630372055760e41b858701526103608701949094528651808801885282815264537572676560d81b81870152610380870152865180880188528481526a14da595c9c9848135a5cdd60aa1b818701526103a0870152865180880188529384526a021b932b0b69029b7b230960ad1b848601526103c0860193909352855180870187529182526c20b93737b632102830b636b2b960991b828501526103e0850191909152845180860186529081526446616e746160d81b81840152610400840152835180850190945283526626b7b739ba32b960c91b908301526104208101919091526200162990601590602262002336565b506040805161026081018252600661022082018181526529b83637b7b360d11b6102408401528252825180840184526008815267263634b3b43a32b960c11b6020828101919091528084019190915283518085018552600b81526a111c9e595c8814da19595d60aa1b81830152838501528351808501855260078082526623b934b73232b960c91b828401526060850191909152845180860186526005808252644f7a69756d60d81b8285015260808601919091528551808701875282815266496e63656e736560c81b8185015260a086015285518087018752600e81526d5469652044796520486f6f64696560901b8185015260c086015285518087018752600a8082526914dad85d19589bd85c9960b21b8286015260e087019190915286518088018852908152694861636b79205361636b60b01b8185015261010086015285518087018752828152664672697362656560c81b8185015261012086015285518087018752848152652334b63a32b960d11b81850152610140860152855180870187529182526646656272657a6560c81b828401526101608501919091528451808601865283815265436f6f6c205360d01b81840152610180850152845180860186526009815268131bdb99d89bd85c9960ba1b818401526101a08501528451808601865292835265566973696e6560d01b838301526101c08401929092528351808501855291825264526f746f7360d81b828201526101e08301919091528251808401909352600c83526b526f6c6c696e67207472617960a01b908301526102008101919091526200188390601690601162002388565b50604080516102c08101825260056102808201818152645363616c6560d81b6102a08401528252825180840184526008815267417368207472617960c01b6020828101919091528084019190915283518085018552600680825265536e7567677960d01b828401528486019190915284518086018652600c81526b4269726b656e73746f636b7360a01b8184015260608501528451808601865281815265486f6f64696560d01b81840152608085015284518086018652600a808252690526f61636820436c69760b41b8285015260a086019190915285518087018752828152650ccc4c4810d160d21b8185015260c086015285518087018752600b81526a2bb2b2b210213aba3a32b960a91b8185015260e0860152855180870187526011815270213630b1b5b634b3b43a102837b9ba32b960791b8185015261010086015285518087018752600d8082526c57616c6c20546170657374727960981b828601526101208701919091528651808801885285815264086deeac6d60db1b818601526101408701528651808801885282815269119a5d1d19590812185d60b21b81860152610160870152865180880188529081526c151a5948111e594814da1a5c9d609a1b8185015261018086015285518087018752600981526852697020537469636b60b81b818501526101a0860152855180870187528181526948756666792042696b6560b01b818501526101c08601528551808701875260048152634469636560e01b818501526101e0860152855180870187529384526443726f637360d81b8484015261020085019390935284518086018652600781526656696272616d7360c81b8184015261022085015284518086018652928352694f73697269732044337360b01b8383015261024084019290925283518085019094529083526569506174687360d01b9083015261026081019190915262001b4990601790601462002292565b506040805161026081018252600861022082018181526737b3102837bbb2b960c11b6102408401528252825180840184526007808252666f66205261676560c81b60208381018290528086019390935285518087018752600d8082526c37b31022bc3430bab9ba34b7b760991b828601528688019190915286518088018852948552671bd98814dada5b1b60c21b858501526060860194909452855180870187528481526c37b3102832b93332b1ba34b7b760991b818501526080860152855180870187528481526c6f66204272696c6c69616e636560981b8185015260a086015285518087018752600b81526a6f6620506172616e696f6160a81b8185015260c08601528551808701875260068152651bd98813db1960d21b8185015260e086015285518087018752828152666f66204c75636b60c81b81850152610100860152855180870187528281528084019190915261012085015284518086018652908152666f66204675727960c81b8183015261014084015283518085018552600a8152696f6620426f7265646f6d60b01b8183015261016084015283518085018552600c81526b6f66204b6e6f776c6564676560a01b818301526101808401528351808501855260098152681bd988149959dc995d60ba1b818301526101a0840152835180850185529182526c37b3102932b33632b1ba34b7b760991b828201526101c083019190915282518084018452601481527f6f6620746865203372642044696d656e73696f6e000000000000000000000000818301526101e08301528251808401909352601683527f6f66207468652034323074682044696d656e73696f6e000000000000000000009083015261020081019190915262001dd390601890601162002388565b506040805161026081018252600b61022082018181526a23b0b99029ba30ba34b7b760a91b6102408401528252825180840184526007815266536b657463687960c81b6020828101919091528084019190915283518085018552600480825263486f6c7960e01b82840152848601919091528451808601865260058082526422b63232b960d91b82850152606086019190915285518087018752600680825265446976696e6560d01b82860152608087019190915286518088018852600f81526e4f6c6465722042726f74686572277360881b8186015260a087015286518088018852600e81526d4f6c64657220536973746572277360901b8186015260c0870152865180880188528581526a486f6c6f6772617068696360a81b8186015260e087015286518088018852918252644d6f6c647960d81b8285015261010086019190915285518087018752818152654d797374696360d01b8185015261012086015285518087018752818152654d696768747960d01b8185015261014086015285518087018752600a815269119bdcdcda5b1a5e995960b21b8185015261016086015285518087018752908152654f726e61746560d01b81840152610180850152845180860186529283526a29b832b1ba30b1bab630b960a91b838301526101a08401929092528351808501855260088082526715995b99d9599d5b60c21b828401526101c085019190915284518086018652928352635765616b60e01b838301526101e08401929092528351808501909452908352674d6f64657261746560c01b908301526102008101919091526200203290601990601162002388565b503480156200204057600080fd5b50604080518082018252601981527f57656564204c6f6f7420466f7220416476656e7475726572730000000000000060208083019182528351808501909452600584526415d313d3d560da1b908401528151919291620020a391600091620023da565b508051620020b9906001906020840190620023da565b50506001600a5550620020cc33620020d2565b6200250e565b600b80546001600160a01b038381166001600160a01b0319831681179093556040519116919082907f8be0079c531659141344cd1fd0a4f28419497f9722a3daafe3b4186f6b6457e090600090a35050565b8280548282559060005260206000209081019282156200217c579160200282015b828111156200217c57825182546001600160a01b0319166001600160a01b0390911617825560209092019160019091019062002145565b506200218a92915062002457565b5090565b828054828255906000526020600020908101928215620021e0579160200282015b82811115620021e05782518051620021cf918491602090910190620023da565b5091602001919060010190620021af565b506200218a9291506200246e565b828054828255906000526020600020908101928215620021e0579160200282015b82811115620021e057825180516200222f918491602090910190620023da565b50916020019190600101906200220f565b828054828255906000526020600020908101928215620021e0579160200282015b82811115620021e0578251805162002281918491602090910190620023da565b509160200191906001019062002261565b828054828255906000526020600020908101928215620021e0579160200282015b82811115620021e05782518051620022d3918491602090910190620023da565b5091602001919060010190620022b3565b828054828255906000526020600020908101928215620021e0579160200282015b82811115620021e0578251805162002325918491602090910190620023da565b509160200191906001019062002305565b828054828255906000526020600020908101928215620021e0579160200282015b82811115620021e0578251805162002377918491602090910190620023da565b509160200191906001019062002357565b828054828255906000526020600020908101928215620021e0579160200282015b82811115620021e05782518051620023c9918491602090910190620023da565b5091602001919060010190620023a9565b828054620023e890620024d1565b90600052602060002090601f0160209004810192826200240c57600085556200217c565b82601f106200242757805160ff19168380011785556200217c565b828001600101855582156200217c579182015b828111156200217c5782518255916020019190600101906200243a565b5b808211156200218a576000815560010162002458565b808211156200218a5760006200248582826200248f565b506001016200246e565b5080546200249d90620024d1565b6000825580601f10620024ae575050565b601f016020900490600052602060002090810190620024ce919062002457565b50565b600181811c90821680620024e657607f821691505b602082108114156200250857634e487b7160e01b600052602260045260246000fd5b50919050565b613621806200251e6000396000f3fe6080604052600436106101735760003560e01c806301ffc9a71461017857806302c52b12146101ad57806306fdde03146101da578063081812fc146101ef578063095ea7b31461022757806309f110b1146102495780630d00f1db1461026957806318160ddd146102895780631f0aa73d146102a85780631f32c18f146102c857806323b872dd146102e85780632f745c591461030857806330563bd71461032857806342842e0e146103485780634dbe5889146103685780634e71d92d1461037d5780634f6ccce7146103855780636000fbcc146103a55780636352211e146103c557806370a08231146103e5578063715018a6146104055780638da5cb5b1461041a57806395d89b411461042f578063a22cb46514610444578063b3233ee214610464578063b88d4fde14610484578063c87b56dd146104a4578063c963483c146104c4578063e4fc6b6d146104da578063e985e9c5146104ef578063ecbeefec1461050f578063f2fde38b14610525575b600080fd5b34801561018457600080fd5b50610198610193366004612a60565b610545565b60405190151581526020015b60405180910390f35b3480156101b957600080fd5b506101cd6101c8366004612ab0565b610570565b6040516101a49190612fdf565b3480156101e657600080fd5b506101cd610671565b3480156101fb57600080fd5b5061020f61020a366004612a98565b610703565b6040516001600160a01b0390911681526020016101a4565b34801561023357600080fd5b50610247610242366004612a37565b610790565b005b34801561025557600080fd5b506101cd610264366004612a98565b6108a1565b34801561027557600080fd5b506101cd610284366004612ab0565b6109a1565b34801561029557600080fd5b506008545b6040519081526020016101a4565b3480156102b457600080fd5b506101cd6102c3366004612ab0565b610a94565b3480156102d457600080fd5b506101cd6102e3366004612a98565b610b86565b3480156102f457600080fd5b5061024761030336600461294a565b610c88565b34801561031457600080fd5b5061029a610323366004612a37565b610cb9565b34801561033457600080fd5b506102476103433660046128fe565b610d4f565b34801561035457600080fd5b5061024761036336600461294a565b610da0565b34801561037457600080fd5b50610247610dbb565b610247610e57565b34801561039157600080fd5b5061029a6103a0366004612a98565b610ef4565b3480156103b157600080fd5b506102476103c0366004612a98565b610f95565b3480156103d157600080fd5b5061020f6103e0366004612a98565b610fc9565b3480156103f157600080fd5b5061029a6104003660046128fe565b611040565b34801561041157600080fd5b506102476110c7565b34801561042657600080fd5b5061020f611102565b34801561043b57600080fd5b506101cd611111565b34801561045057600080fd5b5061024761045f3660046129fd565b611120565b34801561047057600080fd5b50600c5461020f906001600160a01b031681565b34801561049057600080fd5b5061024761049f366004612985565b6111e1565b3480156104b057600080fd5b506101cd6104bf366004612a98565b611219565b3480156104d057600080fd5b5061029a600e5481565b3480156104e657600080fd5b50610247611297565b3480156104fb57600080fd5b5061019861050a366004612918565b61143c565b34801561051b57600080fd5b5061029a600f5481565b34801561053157600080fd5b506102476105403660046128fe565b61146a565b60006001600160e01b0319821663780e9d6360e01b148061056a575061056a8261150a565b92915050565b606061066a836040518060400160405280600381526020016241434360e81b815250846016805480602002602001604051908101604052809291908181526020016000905b828210156106615783829060005260206000200180546105d4906131d8565b80601f0160208091040260200160405190810160405280929190818152602001828054610600906131d8565b801561064d5780601f106106225761010080835404028352916020019161064d565b820191906000526020600020905b81548152906001019060200180831161063057829003601f168201915b5050505050815260200190600101906105b5565b5050505061155a565b9392505050565b606060008054610680906131d8565b80601f01602080910402602001604051908101604052809291908181526020018280546106ac906131d8565b80156106f95780601f106106ce576101008083540402835291602001916106f9565b820191906000526020600020905b8154815290600101906020018083116106dc57829003601f168201915b5050505050905090565b600061070e82611775565b6107745760405162461bcd60e51b815260206004820152602c60248201527f4552433732313a20617070726f76656420717565727920666f72206e6f6e657860448201526b34b9ba32b73a103a37b5b2b760a11b60648201526084015b60405180910390fd5b506000908152600460205260409020546001600160a01b031690565b600061079b82610fc9565b9050806001600160a01b0316836001600160a01b031614156108095760405162461bcd60e51b815260206004820152602160248201527f4552433732313a20617070726f76616c20746f2063757272656e74206f776e656044820152603960f91b606482015260840161076b565b336001600160a01b03821614806108255750610825813361143c565b6108925760405162461bcd60e51b815260206004820152603860248201527f4552433732313a20617070726f76652063616c6c6572206973206e6f74206f776044820152771b995c881b9bdc88185c1c1c9bdd995908199bdc88185b1b60421b606482015260840161076b565b61089c8383611792565b505050565b606061056a82604051806040016040528060038152602001622222ab60e91b815250604051806020016040528060008152506012805480602002602001604051908101604052809291908181526020016000905b82821015610661578382906000526020600020018054610914906131d8565b80601f0160208091040260200160405190810160405280929190818152602001828054610940906131d8565b801561098d5780601f106109625761010080835404028352916020019161098d565b820191906000526020600020905b81548152906001019060200180831161097057829003601f168201915b5050505050815260200190600101906108f5565b606061066a8360405180604001604052806005815260200164534e41434b60d81b815250846014805480602002602001604051908101604052809291908181526020016000905b82821015610661578382906000526020600020018054610a07906131d8565b80601f0160208091040260200160405190810160405280929190818152602001828054610a33906131d8565b8015610a805780601f10610a5557610100808354040283529160200191610a80565b820191906000526020600020905b815481529060010190602001808311610a6357829003601f168201915b5050505050815260200190600101906109e8565b606061066a836040518060400160405280600481526020016315d1515160e21b815250846011805480602002602001604051908101604052809291908181526020016000905b82821015610661578382906000526020600020018054610af9906131d8565b80601f0160208091040260200160405190810160405280929190818152602001828054610b25906131d8565b8015610b725780601f10610b4757610100808354040283529160200191610b72565b820191906000526020600020905b815481529060010190602001808311610b5557829003601f168201915b505050505081526020019060010190610ada565b606061056a82604051806040016040528060058152602001644472696e6b60d81b815250604051806020016040528060008152506015805480602002602001604051908101604052809291908181526020016000905b82821015610661578382906000526020600020018054610bfb906131d8565b80601f0160208091040260200160405190810160405280929190818152602001828054610c27906131d8565b8015610c745780601f10610c4957610100808354040283529160200191610c74565b820191906000526020600020905b815481529060010190602001808311610c5757829003601f168201915b505050505081526020019060010190610bdc565b610c923382611800565b610cae5760405162461bcd60e51b815260040161076b9061309b565b61089c8383836118c2565b6000610cc483611040565b8210610d265760405162461bcd60e51b815260206004820152602b60248201527f455243373231456e756d657261626c653a206f776e657220696e646578206f7560448201526a74206f6620626f756e647360a81b606482015260840161076b565b506001600160a01b03919091166000908152600660209081526040808320938352929052205490565b33610d58611102565b6001600160a01b031614610d7e5760405162461bcd60e51b815260040161076b90613066565b600c80546001600160a01b0319166001600160a01b0392909216919091179055565b61089c838383604051806020016040528060008152506111e1565b6002600a541415610dde5760405162461bcd60e51b815260040161076b906130ec565b6002600a5533610dec611102565b6001600160a01b031614610e125760405162461bcd60e51b815260040161076b90613066565b611069600e5410610e355760405162461bcd60e51b815260040161076b90613123565b610e48610e40611102565b600e54611a5b565b610e50611a79565b6001600a55565b6002600a541415610e7a5760405162461bcd60e51b815260040161076b906130ec565b6002600a55600e5461106911610ea25760405162461bcd60e51b815260040161076b90613123565b600f54341015610eeb5760405162461bcd60e51b81526020600482015260146024820152731b195cdcc81d1a185b8818dbdcdd151bd35a5b9d60621b604482015260640161076b565b610e4833610e40565b6000610eff60085490565b8210610f625760405162461bcd60e51b815260206004820152602c60248201527f455243373231456e756d657261626c653a20676c6f62616c20696e646578206f60448201526b7574206f6620626f756e647360a01b606482015260840161076b565b60088281548110610f8357634e487b7160e01b600052603260045260246000fd5b90600052602060002001549050919050565b33610f9e611102565b6001600160a01b031614610fc45760405162461bcd60e51b815260040161076b90613066565b600f55565b6000818152600260205260408120546001600160a01b03168061056a5760405162461bcd60e51b815260206004820152602960248201527f4552433732313a206f776e657220717565727920666f72206e6f6e657869737460448201526832b73a103a37b5b2b760b91b606482015260840161076b565b60006001600160a01b0382166110ab5760405162461bcd60e51b815260206004820152602a60248201527f4552433732313a2062616c616e636520717565727920666f7220746865207a65604482015269726f206164647265737360b01b606482015260840161076b565b506001600160a01b031660009081526003602052604090205490565b336110d0611102565b6001600160a01b0316146110f65760405162461bcd60e51b815260040161076b90613066565b6111006000611a90565b565b600b546001600160a01b031690565b606060018054610680906131d8565b6001600160a01b0382163314156111755760405162461bcd60e51b815260206004820152601960248201527822a9219b99189d1030b8383937bb32903a379031b0b63632b960391b604482015260640161076b565b3360008181526005602090815260408083206001600160a01b03871680855290835292819020805460ff191686151590811790915590519081529192917f17307eab39ab6107e8899845ad3d59bd9653f200f220920489ca2b5937696c31910160405180910390a35050565b6111eb3383611800565b6112075760405162461bcd60e51b815260040161076b9061309b565b61121384848484611ae2565b50505050565b6060600061122683611b15565b9050600061123384611e06565b9050600061126b6112438661203b565b848460405160200161125793929190612db6565b604051602081830303815290604052612154565b90508060405160200161127e9190612f67565b6040516020818303038152906040529350505050919050565b336112a0611102565b6001600160a01b0316146112c65760405162461bcd60e51b815260040161076b90613066565b47806113065760405162461bcd60e51b815260206004820152600f60248201526e042616c616e6365206973203c3d203608c1b604482015260640161076b565b60006113138260026122c7565b905061134060405180604001604052806009815260200168746f4368617269747960b81b815250826122d3565b600c546040516001600160a01b039091169082156108fc029083906000818181858888f1935050505015801561137a573d6000803e3d6000fd5b5060006113888260056122c7565b90506113bc6040518060400160405280601081526020016f1cda185c99481c195c881dd85b1b195d60821b815250826122d3565b60005b600581101561121357600d81815481106113e957634e487b7160e01b600052603260045260246000fd5b60009182526020822001546040516001600160a01b039091169184156108fc02918591818181858888f19350505050158015611429573d6000803e3d6000fd5b508061143481613213565b9150506113bf565b6001600160a01b03918216600090815260056020908152604080832093909416825291909152205460ff1690565b33611473611102565b6001600160a01b0316146114995760405162461bcd60e51b815260040161076b90613066565b6001600160a01b0381166114fe5760405162461bcd60e51b815260206004820152602660248201527f4f776e61626c653a206e6577206f776e657220697320746865207a65726f206160448201526564647265737360d01b606482015260840161076b565b61150781611a90565b50565b60006001600160e01b031982166380ac58cd60e01b148061153b57506001600160e01b03198216635b5e139f60e01b145b8061056a57506301ffc9a760e01b6001600160e01b031983161461056a565b60606000611592858561156c8961203b565b60405160200161157e93929190612b6b565b604051602081830303815290604052612318565b90506000838451836115a4919061322e565b815181106115c257634e487b7160e01b600052603260045260246000fd5b6020026020010151905060006015836115db919061322e565b9050600e81111561164257601880548391906115f7908661322e565b8154811061161557634e487b7160e01b600052603260045260246000fd5b90600052602060002001604051602001611630929190612cf8565b60405160208183030381529060405291505b6013811061176857601980546060919061165c908661322e565b8154811061167a57634e487b7160e01b600052603260045260246000fd5b90600052602060002001805461168f906131d8565b80601f01602080910402602001604051908101604052809291908181526020018280546116bb906131d8565b80156117085780601f106116dd57610100808354040283529160200191611708565b820191906000526020600020905b8154815290600101906020018083116116eb57829003601f168201915b50505050509050816013141561174157808360405160200161172b929190612c6e565b6040516020818303038152906040529250611766565b8083604051602001611754929190612caa565b60405160208183030381529060405292505b505b509150505b949350505050565b6000908152600260205260409020546001600160a01b0316151590565b600081815260046020526040902080546001600160a01b0319166001600160a01b03841690811790915581906117c782610fc9565b6001600160a01b03167f8c5be1e5ebec7d5bd14f71427d1e84f3dd0314c0f7b2291e5b200ac8c7c3b92560405160405180910390a45050565b600061180b82611775565b61186c5760405162461bcd60e51b815260206004820152602c60248201527f4552433732313a206f70657261746f7220717565727920666f72206e6f6e657860448201526b34b9ba32b73a103a37b5b2b760a11b606482015260840161076b565b600061187783610fc9565b9050806001600160a01b0316846001600160a01b031614806118b25750836001600160a01b03166118a784610703565b6001600160a01b0316145b8061176d575061176d818561143c565b826001600160a01b03166118d582610fc9565b6001600160a01b03161461193d5760405162461bcd60e51b815260206004820152602960248201527f4552433732313a207472616e73666572206f6620746f6b656e2074686174206960448201526839903737ba1037bbb760b91b606482015260840161076b565b6001600160a01b03821661199f5760405162461bcd60e51b8152602060048201526024808201527f4552433732313a207472616e7366657220746f20746865207a65726f206164646044820152637265737360e01b606482015260840161076b565b6119aa838383612349565b6119b5600082611792565b6001600160a01b03831660009081526003602052604081208054600192906119de908490613195565b90915550506001600160a01b0382166000908152600360205260408120805460019290611a0c90849061314a565b909155505060008181526002602052604080822080546001600160a01b0319166001600160a01b03868116918217909255915184939187169160008051602061350e83398151915291a4505050565b611a75828260405180602001604052806000815250612401565b5050565b600e8054906000611a8983613213565b9190505550565b600b80546001600160a01b038381166001600160a01b0319831681179093556040519116919082907f8be0079c531659141344cd1fd0a4f28419497f9722a3daafe3b4186f6b6457e090600090a35050565b611aed8484846118c2565b611af984848484612434565b6112135760405162461bcd60e51b815260040161076b90613014565b6060611b1f612845565b60405180610120016040528060fb81526020016133ad60fb913981526040805180820190915260018152603160f81b6020820152611b5e908490610a94565b8160016020020181905250604051806060016040528060258152602001613553602591398160026020020181905250611bb083604051806040016040528060018152602001601960f91b815250610a94565b606080830191909152604080519182019052602580825261352e60208301396080820152611bdd836108a1565b60a0820152604080516060810190915260258082526135c7602083013960c08201526040805180820190915260018152603160f81b6020820152611c229084906109a1565b60e0820152604080516060810190915260268082526135a160208301396101008201526040805180820190915260018152601960f91b6020820152611c689084906109a1565b610120820152604080516060810190915260268082526132c16020830139610140820152611c9583610b86565b6101608201526040805160608101909152602680825261329b60208301396101808201526040805180820190915260018152603160f81b6020820152611cdc908490610570565b6101a08201526040805160608101909152602680825261333e60208301396101c08201526040805180820190915260018152601960f91b6020820152611d23908490610570565b6101e082015260408051808201909152600d81526c1e17ba32bc3a1f1e17b9bb339f60991b60208201528160105b602090810291909101919091528151828201516040808501516060860151608087015160a088015160c089015160e08a01516101008b0151965160009a611d9b9a99989101612bae565b60408051808303601f19018152908290526101208401516101408501516101608601516101808701516101a08801516101c08901516101e08a01516102008b0151979950611dee988a9890602001612bae565b60408051601f19818403018152919052949350505050565b6060611e10612845565b60405180606001604052806032815260200161330c6032913981526040805180820190915260018152603160f81b6020820152611e4e908490610a94565b8160016020020181905250604051806060016040528060248152602001613389602491398160026020020181905250611ea083604051806040016040528060018152602001601960f91b815250610a94565b60608083019190915260408051918201905260268082526134e860208301396080820152611ecd836108a1565b60a0820152604080516060810190915260258082526132e7602083013960c08201526040805180820190915260018152603160f81b6020820152611f129084906109a1565b60e0820152604080516060810190915260258082526132e760208301396101008201526040805180820190915260018152601960f91b6020820152611f589084906109a1565b610120820152604080516060810190915260258082526133646020830139610140820152611f8583610b86565b6101608201526040805160608101909152602980825261357860208301396101808201526040805180820190915260018152603160f81b6020820152611fcc908490610570565b6101a08201526040805160608101909152602980825261357860208301396101c08201526040805180820190915260018152601960f91b6020820152612013908490610570565b6101e0820152604080518082019091526003815262227d5d60e81b6020820152816010611d51565b60608161205f5750506040805180820190915260018152600360fc1b602082015290565b8160005b8115612089578061207381613213565b91506120829050600a83613162565b9150612063565b6000816001600160401b038111156120b157634e487b7160e01b600052604160045260246000fd5b6040519080825280601f01601f1916602001820160405280156120db576020820181803683370190505b5090505b841561176d576120f0600183613195565b91506120fd600a8661322e565b61210890603061314a565b60f81b81838151811061212b57634e487b7160e01b600052603260045260246000fd5b60200101906001600160f81b031916908160001a90535061214d600a86613162565b94506120df565b805160609080612174575050604080516020810190915260008152919050565b6000600361218383600261314a565b61218d9190613162565b612198906004613176565b905060006121a782602061314a565b6001600160401b038111156121cc57634e487b7160e01b600052604160045260246000fd5b6040519080825280601f01601f1916602001820160405280156121f6576020820181803683370190505b50905060006040518060600160405280604081526020016134a8604091399050600181016020830160005b86811015612282576003818a01810151603f601282901c8116860151600c83901c8216870151600684901c831688015192909316870151600891821b60ff94851601821b92841692909201901b91160160e01b835260049092019101612221565b50600386066001811461229c57600281146122ad576122b9565b613d3d60f01b6001198301526122b9565b603d60f81b6000198301525b505050918152949350505050565b600061066a8284613162565b611a7582826040516024016122e9929190612ff2565b60408051601f198184030181529190526020810180516001600160e01b03166309710a9d60e41b17905261253e565b60008160405160200161232b9190612b4f565b60408051601f19818403018152919052805160209091012092915050565b6001600160a01b0383166123a45761239f81600880546000838152600960205260408120829055600182018355919091527ff3f7a9fe364faab93b216da50a3214154f22a0a2b415b23a84c8169e8b636ee30155565b6123c7565b816001600160a01b0316836001600160a01b0316146123c7576123c7838261255f565b6001600160a01b0382166123de5761089c816125fc565b826001600160a01b0316826001600160a01b03161461089c5761089c82826126d5565b61240b8383612719565b6124186000848484612434565b61089c5760405162461bcd60e51b815260040161076b90613014565b60006001600160a01b0384163b1561253657604051630a85bd0160e11b81526001600160a01b0385169063150b7a0290612478903390899088908890600401612fac565b602060405180830381600087803b15801561249257600080fd5b505af19250505080156124c2575060408051601f3d908101601f191682019092526124bf91810190612a7c565b60015b61251c573d8080156124f0576040519150601f19603f3d011682016040523d82523d6000602084013e6124f5565b606091505b5080516125145760405162461bcd60e51b815260040161076b90613014565b805181602001fd5b6001600160e01b031916630a85bd0160e11b14905061176d565b50600161176d565b80516a636f6e736f6c652e6c6f67602083016000808483855afa5050505050565b6000600161256c84611040565b6125769190613195565b6000838152600760205260409020549091508082146125c9576001600160a01b03841660009081526006602090815260408083208584528252808320548484528184208190558352600790915290208190555b5060009182526007602090815260408084208490556001600160a01b039094168352600681528383209183525290812055565b60085460009061260e90600190613195565b6000838152600960205260408120546008805493945090928490811061264457634e487b7160e01b600052603260045260246000fd5b90600052602060002001549050806008838154811061267357634e487b7160e01b600052603260045260246000fd5b60009182526020808320909101929092558281526009909152604080822084905585825281205560088054806126b957634e487b7160e01b600052603160045260246000fd5b6001900381819060005260206000200160009055905550505050565b60006126e083611040565b6001600160a01b039093166000908152600660209081526040808320868452825280832085905593825260079052919091209190915550565b6001600160a01b03821661276f5760405162461bcd60e51b815260206004820181905260248201527f4552433732313a206d696e7420746f20746865207a65726f2061646472657373604482015260640161076b565b61277881611775565b156127c45760405162461bcd60e51b815260206004820152601c60248201527b115490cdcc8c4e881d1bdad95b88185b1c9958591e481b5a5b9d195960221b604482015260640161076b565b6127d060008383612349565b6001600160a01b03821660009081526003602052604081208054600192906127f990849061314a565b909155505060008181526002602052604080822080546001600160a01b0319166001600160a01b038616908117909155905183929060008051602061350e833981519152908290a45050565b6040518061022001604052806011905b60608152602001906001900390816128555790505090565b60006001600160401b03808411156128875761288761326e565b604051601f8501601f19908116603f011681019082821181831017156128af576128af61326e565b816040528093508581528686860111156128c857600080fd5b858560208301376000602087830101525050509392505050565b80356001600160a01b03811681146128f957600080fd5b919050565b60006020828403121561290f578081fd5b61066a826128e2565b6000806040838503121561292a578081fd5b612933836128e2565b9150612941602084016128e2565b90509250929050565b60008060006060848603121561295e578081fd5b612967846128e2565b9250612975602085016128e2565b9150604084013590509250925092565b6000806000806080858703121561299a578081fd5b6129a3856128e2565b93506129b1602086016128e2565b92506040850135915060608501356001600160401b038111156129d2578182fd5b8501601f810187136129e2578182fd5b6129f18782356020840161286d565b91505092959194509250565b60008060408385031215612a0f578182fd5b612a18836128e2565b915060208301358015158114612a2c578182fd5b809150509250929050565b60008060408385031215612a49578182fd5b612a52836128e2565b946020939093013593505050565b600060208284031215612a71578081fd5b813561066a81613284565b600060208284031215612a8d578081fd5b815161066a81613284565b600060208284031215612aa9578081fd5b5035919050565b60008060408385031215612ac2578182fd5b8235915060208301356001600160401b03811115612ade578182fd5b8301601f81018513612aee578182fd5b612afd8582356020840161286d565b9150509250929050565b60008151808452612b1f8160208601602086016131ac565b601f01601f19169290920160200192915050565b60008151612b458185602086016131ac565b9290920192915050565b60008251612b618184602087016131ac565b9190910192915050565b60008451612b7d8184602089016131ac565b845190830190612b918183602089016131ac565b8451910190612ba48183602088016131ac565b0195945050505050565b60008a51612bc0818460208f016131ac565b8a51612bd28183860160208f016131ac565b8a519184010190612be7818360208e016131ac565b8951612bf98183850160208e016131ac565b8951929091010190612c0f818360208c016131ac565b8751612c218183850160208c016131ac565b8751929091010190612c37818360208a016131ac565b8551910190612c4a8183602089016131ac565b8451612c5c81838501602089016131ac565b9101019b9a5050505050505050505050565b60008351612c808184602088016131ac565b600160fd1b9083019081528351612c9e8160018401602088016131ac565b01600101949350505050565b60008351612cbc8184602088016131ac565b600160fd1b9083019081528351612cda8160018401602088016131ac565b640202b3432360dc1b60019290910191820152600601949350505050565b600083516020612d0b82858389016131ac565b600160fd1b9184019182528454600190849080831c81841680612d2f57607f821691505b858210811415612d4d57634e487b7160e01b88526022600452602488fd5b808015612d615760018114612d7657612da6565b60ff1984168887015282880186019450612da6565b60008b815260209020895b84811015612d9c5781548a8201890152908701908801612d81565b5050858389010194505b50929a9950505050505050505050565b6e7b226e616d65223a2022426167202360881b81528351600090612de181600f8501602089016131ac565b7f222c20226465736372697074696f6e223a202257656564204c6f6f7420697320600f918401918201527f72616e646f6d697a656420616476656e747572657220676561722072616e646f602f8201527f6d6c792067656e6572617465642c2073746f7265642c20616e6420736d6f6b65604f8201527f64206f6e20636861696e2e2053746174732c20496d616765732c20616e64206f606f8201527f746865722066756e6374696f6e616c6974792061726520696e74656e74696f6e608f8201527f616c6c79206f6d697474656420666f72206f746865727320746f20696e74657260af8201527f707265742e204665656c206672656520746f207573652057656564204c6f6f7460cf8201527f20696e20616e792077617920796f752077616e742e222c2022696d6167655f6460ef8201526630ba30911d101160c91b61010f820152612f5d612f50612f4a612f3d610116850189612b33565b601160f91b815260010190565b86612b33565b607d60f81b815260010190565b9695505050505050565b7f646174613a6170706c69636174696f6e2f6a736f6e3b6261736536342c000000815260008251612f9f81601d8501602087016131ac565b91909101601d0192915050565b6001600160a01b0385811682528416602082015260408101839052608060608201819052600090612f5d90830184612b07565b60208152600061066a6020830184612b07565b6040815260006130056040830185612b07565b90508260208301529392505050565b60208082526032908201527f4552433732313a207472616e7366657220746f206e6f6e20455243373231526560408201527131b2b4bb32b91034b6b83632b6b2b73a32b960711b606082015260800190565b6020808252818101527f4f776e61626c653a2063616c6c6572206973206e6f7420746865206f776e6572604082015260600190565b60208082526031908201527f4552433732313a207472616e736665722063616c6c6572206973206e6f74206f6040820152701ddb995c881b9bdc88185c1c1c9bdd9959607a1b606082015260800190565b6020808252601f908201527f5265656e7472616e637947756172643a207265656e7472616e742063616c6c00604082015260600190565b6020808252600d908201526c151bdad95b881a5b9d985b1a59609a1b604082015260600190565b6000821982111561315d5761315d613242565b500190565b60008261317157613171613258565b500490565b600081600019048311821515161561319057613190613242565b500290565b6000828210156131a7576131a7613242565b500390565b60005b838110156131c75781810151838201526020016131af565b838111156112135750506000910152565b600181811c908216806131ec57607f821691505b6020821081141561320d57634e487b7160e01b600052602260045260246000fd5b50919050565b600060001982141561322757613227613242565b5060010190565b60008261323d5761323d613258565b500690565b634e487b7160e01b600052601160045260246000fd5b634e487b7160e01b600052601260045260246000fd5b634e487b7160e01b600052604160045260246000fd5b6001600160e01b03198116811461150757600080fdfe3c2f746578743e3c7465787420783d2731302720793d273134302720636c6173733d2762273e3c2f746578743e3c7465787420783d2731302720793d273132302720636c6173733d2762273e227d2c7b2274726169745f74797065223a2022736e61636b222c202276616c7565223a20222c202261747472696275746573223a205b7b2274726169745f74797065223a202277656564222c202276616c7565223a20223c2f746578743e3c7465787420783d2731302720793d273136302720636c6173733d2762273e227d2c7b2274726169745f74797065223a20226472696e6b222c202276616c7565223a2022227d2c7b2274726169745f74797065223a202277656564222c202276616c7565223a20223c73766720786d6c6e733d27687474703a2f2f7777772e77332e6f72672f323030302f73766727207072657365727665417370656374526174696f3d27784d696e594d696e206d656574272076696577426f783d273020302033353020333530273e3c7374796c653e2e62207b2066696c6c3a20233634413932353b20666f6e742d66616d696c793a2073657269663b20666f6e742d73697a653a20313470783b207d3c2f7374796c653e3c726563742077696474683d273130302527206865696768743d2731303025272066696c6c3d272345304642443227202f3e3c7465787420783d2731302720793d2732302720636c6173733d2762273e4142434445464748494a4b4c4d4e4f505152535455565758595a6162636465666768696a6b6c6d6e6f707172737475767778797a303132333435363738392b2f227d2c7b2274726169745f74797065223a2022646576696365222c202276616c7565223a2022ddf252ad1be2c89b69c2b068fc378daa952ba7f163c4a11628f55a4df523b3ef3c2f746578743e3c7465787420783d2731302720793d2736302720636c6173733d2762273e3c2f746578743e3c7465787420783d2731302720793d2734302720636c6173733d2762273e227d2c7b2274726169745f74797065223a20226163636573736f7279222c202276616c7565223a20223c2f746578743e3c7465787420783d2731302720793d273130302720636c6173733d2762273e3c2f746578743e3c7465787420783d2731302720793d2738302720636c6173733d2762273ea26469706673582212203528cadb2e340fa5a67cfd3b8bc403013f196fd70285e4a8367d8b8d9139cd8664736f6c63430008040033",
  "linkReferences": {},
  "deployedLinkReferences": {}
}